{
  "contractName": "EvDashboardRegistry",
  "abi": [
    {
      "inputs": [
        {
          "internalType": "address",
          "name": "ocnRegistry",
          "type": "address"
        }
      ],
      "payable": false,
      "stateMutability": "nonpayable",
      "type": "constructor"
    },
    {
      "constant": true,
      "inputs": [
        {
          "internalType": "address",
          "name": "",
          "type": "address"
        }
      ],
      "name": "devices",
      "outputs": [
        {
          "internalType": "address",
          "name": "user",
          "type": "address"
        },
        {
          "internalType": "string",
          "name": "identifier",
          "type": "string"
        }
      ],
      "payable": false,
      "stateMutability": "view",
      "type": "function"
    },
    {
      "constant": false,
      "inputs": [
        {
          "internalType": "address",
          "name": "user",
          "type": "address"
        },
        {
          "internalType": "uint8",
          "name": "v",
          "type": "uint8"
        },
        {
          "internalType": "bytes32",
          "name": "r",
          "type": "bytes32"
        },
        {
          "internalType": "bytes32",
          "name": "s",
          "type": "bytes32"
        }
      ],
      "name": "addUser",
      "outputs": [],
      "payable": false,
      "stateMutability": "nonpayable",
      "type": "function"
    },
    {
      "constant": false,
      "inputs": [
        {
          "internalType": "address",
          "name": "device",
          "type": "address"
        },
        {
          "internalType": "string",
          "name": "identifier",
          "type": "string"
        },
        {
          "internalType": "address",
          "name": "user",
          "type": "address"
        },
        {
          "internalType": "uint8",
          "name": "v",
          "type": "uint8"
        },
        {
          "internalType": "bytes32",
          "name": "r",
          "type": "bytes32"
        },
        {
          "internalType": "bytes32",
          "name": "s",
          "type": "bytes32"
        }
      ],
      "name": "addDevice",
      "outputs": [],
      "payable": false,
      "stateMutability": "nonpayable",
      "type": "function"
    },
    {
      "constant": true,
      "inputs": [],
      "name": "getAllUserAddresses",
      "outputs": [
        {
          "internalType": "address[]",
          "name": "",
          "type": "address[]"
        }
      ],
      "payable": false,
      "stateMutability": "view",
      "type": "function"
    },
    {
      "constant": true,
      "inputs": [],
      "name": "getAllDeviceAddresses",
      "outputs": [
        {
          "internalType": "address[]",
          "name": "",
          "type": "address[]"
        }
      ],
      "payable": false,
      "stateMutability": "view",
      "type": "function"
    },
    {
      "constant": true,
      "inputs": [
        {
          "internalType": "string",
          "name": "identifier",
          "type": "string"
        }
      ],
      "name": "getDeviceFromIdentifier",
      "outputs": [
        {
          "internalType": "address",
          "name": "addr",
          "type": "address"
        },
        {
          "internalType": "address",
          "name": "user",
          "type": "address"
        }
      ],
      "payable": false,
      "stateMutability": "view",
      "type": "function"
    }
  ],
  "bytecode": "0x608060405234801561001057600080fd5b506040516115723803806115728339818101604052602081101561003357600080fd5b8101908080519060200190929190505050806000806101000a81548173ffffffffffffffffffffffffffffffffffffffff021916908373ffffffffffffffffffffffffffffffffffffffff160217905550506114de806100946000396000f3fe608060405234801561001057600080fd5b50600436106100625760003560e01c80632f330023146100675780633d59a2c1146100c657806342bff025146101e25780638513b74d146103105780639c5fbf051461036f578063e7b4cac6146103d4575b600080fd5b61006f6104c4565b6040518080602001828103825283818151815260200191508051906020019060200280838360005b838110156100b2578082015181840152602081019050610097565b505050509050019250505060405180910390f35b6101e0600480360360c08110156100dc57600080fd5b81019080803573ffffffffffffffffffffffffffffffffffffffff1690602001909291908035906020019064010000000081111561011957600080fd5b82018360208201111561012b57600080fd5b8035906020019184600183028401116401000000008311171561014d57600080fd5b91908080601f016020809104026020016040519081016040528093929190818152602001838380828437600081840152601f19601f820116905080830192505050505050509192919290803573ffffffffffffffffffffffffffffffffffffffff169060200190929190803560ff1690602001909291908035906020019092919080359060200190929190505050610552565b005b61029b600480360360208110156101f857600080fd5b810190808035906020019064010000000081111561021557600080fd5b82018360208201111561022757600080fd5b8035906020019184600183028401116401000000008311171561024957600080fd5b91908080601f016020809104026020016040519081016040528093929190818152602001838380828437600081840152601f19601f820116905080830192505050505050509192919290505050610bac565b604051808373ffffffffffffffffffffffffffffffffffffffff1673ffffffffffffffffffffffffffffffffffffffff1681526020018273ffffffffffffffffffffffffffffffffffffffff1673ffffffffffffffffffffffffffffffffffffffff1681526020019250505060405180910390f35b610318610ca5565b6040518080602001828103825283818151815260200191508051906020019060200280838360005b8381101561035b578082015181840152602081019050610340565b505050509050019250505060405180910390f35b6103d26004803603608081101561038557600080fd5b81019080803573ffffffffffffffffffffffffffffffffffffffff169060200190929190803560ff1690602001909291908035906020019092919080359060200190929190505050610d33565b005b610416600480360360208110156103ea57600080fd5b81019080803573ffffffffffffffffffffffffffffffffffffffff1690602001909291905050506110db565b604051808373ffffffffffffffffffffffffffffffffffffffff1673ffffffffffffffffffffffffffffffffffffffff16815260200180602001828103825283818151815260200191508051906020019080838360005b8381101561048857808201518184015260208101905061046d565b50505050905090810190601f1680156104b55780820380516001836020036101000a031916815260200191505b50935050505060405180910390f35b6060600280548060200260200160405190810160405280929190818152602001828054801561054857602002820191906000526020600020905b8160009054906101000a900473ffffffffffffffffffffffffffffffffffffffff1673ffffffffffffffffffffffffffffffffffffffff16815260200190600101908083116104fe575b5050505050905090565b6000868686604051602001808473ffffffffffffffffffffffffffffffffffffffff1673ffffffffffffffffffffffffffffffffffffffff1660601b815260140183805190602001908083835b602083106105c2578051825260208201915060208101905060208303925061059f565b6001836020036101000a0380198251168184511680821785525050505050509050018273ffffffffffffffffffffffffffffffffffffffff1673ffffffffffffffffffffffffffffffffffffffff1660601b81526014019350505050604051602081830303815290604052805190602001209050600060016040518060400160405280601c81526020017f19457468657265756d205369676e6564204d6573736167653a0a333200000000815250836040516020018083805190602001908083835b602083106106a75780518252602082019150602081019050602083039250610684565b6001836020036101000a038019825116818451168082178552505050505050905001828152602001925050506040516020818303038152906040528051906020012086868660405160008152602001604052604051808581526020018460ff1660ff1681526020018381526020018281526020019450505050506020604051602081039080840390855afa158015610743573d6000803e3d6000fd5b5050506020604051035190508073ffffffffffffffffffffffffffffffffffffffff168673ffffffffffffffffffffffffffffffffffffffff16146107f0576040517f08c379a000000000000000000000000000000000000000000000000000000000815260040180806020018281038252601f8152602001807f457870656374656420616e642061637475616c2075736572206469666665720081525060200191505060405180910390fd5b6107f9816111b7565b60011515600160008373ffffffffffffffffffffffffffffffffffffffff1673ffffffffffffffffffffffffffffffffffffffff16815260200190815260200160002060009054906101000a900460ff161515146108bf576040517f08c379a00000000000000000000000000000000000000000000000000000000081526004018080602001828103825260128152602001807f55736572206e6f7420616464656420796574000000000000000000000000000081525060200191505060405180910390fd5b600073ffffffffffffffffffffffffffffffffffffffff16600360008a73ffffffffffffffffffffffffffffffffffffffff1673ffffffffffffffffffffffffffffffffffffffff16815260200190815260200160002060000160009054906101000a900473ffffffffffffffffffffffffffffffffffffffff1673ffffffffffffffffffffffffffffffffffffffff16146109c3576040517f08c379a00000000000000000000000000000000000000000000000000000000081526004018080602001828103825260148152602001807f44657669636520616c726561647920616464656400000000000000000000000081525060200191505060405180910390fd5b60405180604001604052808773ffffffffffffffffffffffffffffffffffffffff16815260200188815250600360008a73ffffffffffffffffffffffffffffffffffffffff1673ffffffffffffffffffffffffffffffffffffffff16815260200190815260200160002060008201518160000160006101000a81548173ffffffffffffffffffffffffffffffffffffffff021916908373ffffffffffffffffffffffffffffffffffffffff1602179055506020820151816001019080519060200190610a90929190611404565b50905050876004886040518082805190602001908083835b60208310610acb5780518252602082019150602081019050602083039250610aa8565b6001836020036101000a038019825116818451168082178552505050505050905001915050908152602001604051809103902060006101000a81548173ffffffffffffffffffffffffffffffffffffffff021916908373ffffffffffffffffffffffffffffffffffffffff16021790555060058890806001815401808255809150509060018203906000526020600020016000909192909190916101000a81548173ffffffffffffffffffffffffffffffffffffffff021916908373ffffffffffffffffffffffffffffffffffffffff160217905550505050505050505050565b6000806004836040518082805190602001908083835b60208310610be55780518252602082019150602081019050602083039250610bc2565b6001836020036101000a038019825116818451168082178552505050505050905001915050908152602001604051809103902060009054906101000a900473ffffffffffffffffffffffffffffffffffffffff169150600360008373ffffffffffffffffffffffffffffffffffffffff1673ffffffffffffffffffffffffffffffffffffffff16815260200190815260200160002060000160009054906101000a900473ffffffffffffffffffffffffffffffffffffffff169050915091565b60606005805480602002602001604051908101604052809291908181526020018280548015610d2957602002820191906000526020600020905b8160009054906101000a900473ffffffffffffffffffffffffffffffffffffffff1673ffffffffffffffffffffffffffffffffffffffff1681526020019060010190808311610cdf575b5050505050905090565b600084604051602001808273ffffffffffffffffffffffffffffffffffffffff1673ffffffffffffffffffffffffffffffffffffffff1660601b8152601401915050604051602081830303815290604052805190602001209050600060016040518060400160405280601c81526020017f19457468657265756d205369676e6564204d6573736167653a0a333200000000815250836040516020018083805190602001908083835b60208310610dfe5780518252602082019150602081019050602083039250610ddb565b6001836020036101000a038019825116818451168082178552505050505050905001828152602001925050506040516020818303038152906040528051906020012086868660405160008152602001604052604051808581526020018460ff1660ff1681526020018381526020018281526020019450505050506020604051602081039080840390855afa158015610e9a573d6000803e3d6000fd5b5050506020604051035190508073ffffffffffffffffffffffffffffffffffffffff168673ffffffffffffffffffffffffffffffffffffffff1614610f47576040517f08c379a000000000000000000000000000000000000000000000000000000000815260040180806020018281038252601f8152602001807f457870656374656420616e642061637475616c2075736572206469666665720081525060200191505060405180910390fd5b610f50816111b7565b60001515600160008373ffffffffffffffffffffffffffffffffffffffff1673ffffffffffffffffffffffffffffffffffffffff16815260200190815260200160002060009054906101000a900460ff16151514611016576040517f08c379a00000000000000000000000000000000000000000000000000000000081526004018080602001828103825260128152602001807f5573657220616c7265616479206164646564000000000000000000000000000081525060200191505060405180910390fd5b60018060008373ffffffffffffffffffffffffffffffffffffffff1673ffffffffffffffffffffffffffffffffffffffff16815260200190815260200160002060006101000a81548160ff02191690831515021790555060028190806001815401808255809150509060018203906000526020600020016000909192909190916101000a81548173ffffffffffffffffffffffffffffffffffffffff021916908373ffffffffffffffffffffffffffffffffffffffff16021790555050505050505050565b60036020528060005260406000206000915090508060000160009054906101000a900473ffffffffffffffffffffffffffffffffffffffff1690806001018054600181600116156101000203166002900480601f0160208091040260200160405190810160405280929190818152602001828054600181600116156101000203166002900480156111ad5780601f10611182576101008083540402835291602001916111ad565b820191906000526020600020905b81548152906001019060200180831161119057829003601f168201915b5050505050905082565b60008060009054906101000a900473ffffffffffffffffffffffffffffffffffffffff1673ffffffffffffffffffffffffffffffffffffffff166388cf72a0836040518263ffffffff1660e01b8152600401808273ffffffffffffffffffffffffffffffffffffffff1673ffffffffffffffffffffffffffffffffffffffff16815260200191505060006040518083038186803b15801561125757600080fd5b505afa15801561126b573d6000803e3d6000fd5b505050506040513d6000823e3d601f19601f82011682018060405250604081101561129557600080fd5b8101908080519060200190929190805160405193929190846401000000008211156112bf57600080fd5b838201915060208201858111156112d557600080fd5b82518660018202830111640100000000821117156112f257600080fd5b8083526020830192505050908051906020019080838360005b8381101561132657808201518184015260208101905061130b565b50505050905090810190601f1680156113535780820380516001836020036101000a031916815260200191505b50604052505050509050600073ffffffffffffffffffffffffffffffffffffffff168173ffffffffffffffffffffffffffffffffffffffff161415611400576040517f08c379a000000000000000000000000000000000000000000000000000000000815260040180806020018281038252601f8152602001807f55736572206e6f74206c697374656420696e204f434e2052656769737472790081525060200191505060405180910390fd5b5050565b828054600181600116156101000203166002900490600052602060002090601f016020900481019282601f1061144557805160ff1916838001178555611473565b82800160010185558215611473579182015b82811115611472578251825591602001919060010190611457565b5b5090506114809190611484565b5090565b6114a691905b808211156114a257600081600090555060010161148a565b5090565b9056fea265627a7a72315820987558f8c4bd39ec41e68c6f7e258b2a97682951c6b555975387a6eed990313c64736f6c634300050f0032",
  "source": "pragma solidity ^0.5.15;\n\nimport \"./Registry.sol\";\n\ncontract EvDashboardRegistry {\n    Registry private registry;\n    string private constant prefix = \"\\u0019Ethereum Signed Message:\\n32\";\n\n    struct Device {\n        address user;\n        string identifier;\n    }\n\n    /**\n     * User Storage\n     */\n    mapping(address => bool) private users;\n    address[] private userAddressList;\n\n    /**\n     * Device Storage\n     */\n    mapping(address => Device) public devices;\n    mapping(string => address) private identifiers;\n    address[] private deviceAddressList;\n    \n\n    constructor(address ocnRegistry) public {\n        registry = Registry(ocnRegistry);\n    }\n\n    function validateRegistered(address user) private {\n        (address operator, ) = registry.getOperatorByAddress(user);\n        require(operator != address(0), \"User not listed in OCN Registry\");\n    }\n\n    /**\n     * Adds business user, allowing participation in FCR market. \n     * Can be relayed by any entity: the business user only needs to sign their wallet address.\n     * NOTE: might need to be modified (DID subject and OCN Registry party could be same entities with different keys)\n     */\n    function addUser(\n        address user,\n        uint8 v, \n        bytes32 r, \n        bytes32 s\n    ) public {\n        bytes32 paramHash = keccak256(abi.encodePacked(user));\n        address signer = ecrecover(keccak256(abi.encodePacked(prefix, paramHash)), v, r, s);\n        require(user == signer, \"Expected and actual user differ\");\n        validateRegistered(signer);\n        require(users[signer] == false, \"User already added\");\n        users[signer] = true;\n        userAddressList.push(signer);\n    }\n\n    /**\n      * Adds device, allowing participation in FCR market.\n      * Can be relayed by any entity: the business user only needs to sign\n      * the device address, unique identifier and its own user address\n      */\n    function addDevice(\n        address device, // the address used in the devices DID\n        string memory identifier, // the unique identifier (EVSE ID, Contract ID)\n        address user, \n        uint8 v, \n        bytes32 r, \n        bytes32 s\n    ) public {\n        bytes32 paramHash = keccak256(abi.encodePacked(device, identifier, user));\n        address signer = ecrecover(keccak256(abi.encodePacked(prefix, paramHash)), v, r, s);\n        require(user == signer, \"Expected and actual user differ\");\n        validateRegistered(signer);\n        require(users[signer] == true, \"User not added yet\");\n        require(devices[device].user == address(0), \"Device already added\");\n        devices[device] = Device(user, identifier);\n        identifiers[identifier] = device;\n        deviceAddressList.push(device);\n    }\n\n    function getAllUserAddresses() public view returns (address[] memory) {\n        return userAddressList;\n    }\n\n    function getAllDeviceAddresses() public view returns (address[] memory) {\n        return deviceAddressList;\n    }\n\n    function getDeviceFromIdentifier(string memory identifier) public view returns (\n        address addr,\n        address user\n    ) {\n        addr = identifiers[identifier];\n        user = devices[addr].user;\n    }\n\n}\n",
  "sourcePath": "/Users/john/shareandcharge/ocn-registry/contracts/EvDashboardRegistry.sol",
  "compiler": {
    "name": "solc",
    "version": "0.5.15+commit.6a57276f.Emscripten.clang"
  },
  "schemaVersion": "3.1.0",
  "updatedAt": "2021-03-17T16:55:46.081Z",
  "devdoc": {
    "methods": {}
  },
  "userdoc": {
    "methods": {
      "addDevice(address,string,address,uint8,bytes32,bytes32)": {
        "notice": "Adds device, allowing participation in FCR market. Can be relayed by any entity: the business user only needs to sign the device address, unique identifier and its own user address"
      },
      "addUser(address,uint8,bytes32,bytes32)": {
        "notice": "Adds business user, allowing participation in FCR market.  Can be relayed by any entity: the business user only needs to sign their wallet address. NOTE: might need to be modified (DID subject and OCN Registry party could be same entities with different keys)"
      }
    }
  }
}